:100000000C9432000C944F000C944F000C944F0051
:100010000C944F000C944F000C944F000C944F0024
:100020000C944F000C944F000C944F000C944F0014
:100030000C944F000C944F000C944F000C944F0004
:100040000C944F000C944F000C944F000C944F00F4
:100050000C944F007E018101840187018A018D018A
:100060009001930111241FBECFE5D8E0DEBFCDBFC4
:1000700010E0A0E6B0E0EAE7F5E002C005900D92DE
:10008000A237B107D9F720E0A2E7B0E001C01D9286
:10009000A237B207E1F70E9451000C94BB020C9406
:1000A0000000CF93DF9300D000D01F92CDB7DEB712
:1000B0000E9470010E9473000E94DA0080E690E0C6
:1000C0000E945B0184EC0E94920080E00E94750116
:1000D0004AE0BE016F5F7F4F0E948602CE0101960B
:1000E0000E945B01EFCF41E064E083E00E949E014B
:1000F00041E065E083E00E949E0141E063E082E030
:100100000E949E0141E064E082E00E949E0141E085
:1001100065E082E00E949E0141E066E082E00E948C
:100120009E010895CF93C82F40E061E081E00E94D6
:100130000F0240E062E081E00E940F0240E063E0D5
:1001400081E00E940F028BB39C2F907F8F70892BD0
:100150008BBB41E063E081E00E940F028FE99FE0EA
:100160000197F1F700C0000040E063E081E00E94E9
:100170000F022BB330E1C39FC0011124922F9F7057
:10018000892B8BBB41E063E081E00E940F028FE985
:100190009FE00197F1F700C0000040E063E081E0DC
:1001A0000E940F028FE19EE40197F1F700C000006A
:1001B000CF91089541E061E081E00E949E0141E01D
:1001C00062E081E00E949E0141E063E081E00E94E4
:1001D0009E0141E064E080E00E949E0141E065E014
:1001E00080E00E949E0141E066E080E00E949E0166
:1001F00041E067E080E00E949E0183E30E9492005C
:1002000082E30E94920088E20E94920082E00E94B3
:10021000920081E00E9492008CE00E94920086E0B1
:100220000E9492000895CF93C82F41E061E081E0E1
:100230000E940F0240E062E081E00E940F0240E075
:1002400063E081E00E940F028BB39C2F907F8F7040
:10025000892B8BBB41E063E081E00E940F028FE9B4
:100260009FE00197F1F700C0000040E063E081E00B
:100270000E940F022BB330E1C39FC0011124922FC3
:100280009F70892B8BBB41E063E081E00E940F02ED
:100290008FE99FE00197F1F700C0000040E063E0C4
:1002A00081E00E940F028FE19EE40197F1F700C008
:1002B0000000CF910895CF93DF93EC0188818823CC
:1002C00061F021960E9413018FE39CE90197F1F7F9
:1002D00000C0000089918111F5CFDF91CF91089581
:1002E00080E487B987EA86B9089590E0883091055F
:1002F000E8F4FC01E65DFF4F0C94800280E487B9CE
:1003000017C081E487B914C082E487B911C083E4BF
:1003100087B90EC084E487B90BC085E487B908C0EB
:1003200086E487B905C087E487B902C080E487B94D
:10033000369A349BFECF84B195B10895442319F0C9
:100340004130C9F10895813091F028F08230D9F020
:10035000833029F108952AB381E090E002C0880F2C
:10036000991F6A95E2F7809582238ABB089527B387
:1003700081E090E002C0880F991F6A95E2F78095AE
:10038000822387BB089524B381E090E002C0880FE8
:10039000991F6A95E2F78095822384BB089521B363
:1003A00081E090E002C0880F991F6A95E2F780957E
:1003B000822381BB0895813089F028F08230C9F012
:1003C000833011F108952AB381E090E002C0880FD4
:1003D000991F6A95E2F7822B8ABB089527B381E0C3
:1003E00090E002C0880F991F6A95E2F7822B87BBC5
:1003F000089524B381E090E002C0880F991F6A95A8
:10040000E2F7822B84BB089521B381E090E002C023
:10041000880F991F6A95E2F7822B81BB08954423C8
:1004200019F04130C9F10895813091F028F08230FF
:10043000D9F0833029F108952BB381E090E002C018
:10044000880F991F6A95E2F7809582238BBB0895E8
:1004500028B381E090E002C0880F991F6A95E2F707
:100460008095822388BB089525B381E090E002C087
:10047000880F991F6A95E2F78095822385BB0895BE
:1004800022B381E090E002C0880F991F6A95E2F7DD
:100490008095822382BB0895813089F028F08230D4
:1004A000C9F0833011F108952BB381E090E002C0D0
:1004B000880F991F6A95E2F7822B8BBB089528B3AA
:1004C00081E090E002C0880F991F6A95E2F7822BC5
:1004D00088BB089525B381E090E002C0880F991F82
:1004E0006A95E2F7822B85BB089522B381E090E004
:1004F00002C0880F991F6A95E2F7822B82BB08958C
:10050000EE0FFF1F0590F491E02D0994BB274A30B0
:1005100031F4992322F4BDE2909581959F4F0C947C
:100520009202BB27FB015527AA27880F991FAA1FF4
:10053000A41710F0A41B83955051B9F7A05DAA33FE
:1005400008F0A95DA193009779F7B111B1931192C9
:10055000CB010C94AB02DC01FC01672F7191772376
:10056000E1F7329704C07C916D9370836291AE176E
:0A057000BF07C8F30895F894FFCF09
:10057A00596F757220446972656374696F6E206978
:02058A007300FC
:00000001FF
